{
  "contractName": "Index",
  "abi": [
    {
      "inputs": [
        {
          "internalType": "uint256",
          "name": "_scr",
          "type": "uint256"
        },
        {
          "internalType": "uint256",
          "name": "_fcr",
          "type": "uint256"
        },
        {
          "internalType": "uint256",
          "name": "_lpr",
          "type": "uint256"
        },
        {
          "internalType": "uint256",
          "name": "_spr",
          "type": "uint256"
        }
      ],
      "stateMutability": "nonpayable",
      "type": "constructor"
    },
    {
      "inputs": [],
      "name": "manager",
      "outputs": [
        {
          "internalType": "address",
          "name": "",
          "type": "address"
        }
      ],
      "stateMutability": "view",
      "type": "function",
      "constant": true
    },
    {
      "inputs": [
        {
          "internalType": "uint256",
          "name": "",
          "type": "uint256"
        }
      ],
      "name": "parkingStationToOwner",
      "outputs": [
        {
          "internalType": "address",
          "name": "",
          "type": "address"
        }
      ],
      "stateMutability": "view",
      "type": "function",
      "constant": true
    },
    {
      "inputs": [
        {
          "internalType": "uint256",
          "name": "",
          "type": "uint256"
        }
      ],
      "name": "parkingStations",
      "outputs": [
        {
          "internalType": "string",
          "name": "name",
          "type": "string"
        },
        {
          "internalType": "string",
          "name": "street",
          "type": "string"
        },
        {
          "internalType": "uint256",
          "name": "nlp",
          "type": "uint256"
        },
        {
          "internalType": "uint256",
          "name": "nsp",
          "type": "uint256"
        },
        {
          "internalType": "uint256",
          "name": "index",
          "type": "uint256"
        }
      ],
      "stateMutability": "view",
      "type": "function",
      "constant": true
    },
    {
      "inputs": [
        {
          "internalType": "string",
          "name": "_name",
          "type": "string"
        },
        {
          "internalType": "string",
          "name": "_street",
          "type": "string"
        },
        {
          "internalType": "uint256",
          "name": "_nsc",
          "type": "uint256"
        },
        {
          "internalType": "uint256",
          "name": "_nfc",
          "type": "uint256"
        }
      ],
      "name": "registerItem",
      "outputs": [],
      "stateMutability": "nonpayable",
      "type": "function"
    },
    {
      "inputs": [
        {
          "internalType": "string",
          "name": "_name",
          "type": "string"
        },
        {
          "internalType": "string",
          "name": "_street",
          "type": "string"
        },
        {
          "internalType": "uint256",
          "name": "_nlp",
          "type": "uint256"
        },
        {
          "internalType": "uint256",
          "name": "_nsp",
          "type": "uint256"
        }
      ],
      "name": "registerParkingItem",
      "outputs": [],
      "stateMutability": "nonpayable",
      "type": "function"
    },
    {
      "inputs": [],
      "name": "registeredParkingStation",
      "outputs": [
        {
          "components": [
            {
              "internalType": "string",
              "name": "name",
              "type": "string"
            },
            {
              "internalType": "string",
              "name": "street",
              "type": "string"
            },
            {
              "internalType": "uint256",
              "name": "nlp",
              "type": "uint256"
            },
            {
              "internalType": "uint256",
              "name": "nsp",
              "type": "uint256"
            },
            {
              "internalType": "uint256",
              "name": "index",
              "type": "uint256"
            }
          ],
          "internalType": "struct ParkingRegistration.parkingStation[]",
          "name": "",
          "type": "tuple[]"
        }
      ],
      "stateMutability": "view",
      "type": "function",
      "constant": true
    },
    {
      "inputs": [],
      "name": "registeredStation",
      "outputs": [
        {
          "components": [
            {
              "internalType": "string",
              "name": "name",
              "type": "string"
            },
            {
              "internalType": "string",
              "name": "street",
              "type": "string"
            },
            {
              "internalType": "uint256",
              "name": "nsc",
              "type": "uint256"
            },
            {
              "internalType": "uint256",
              "name": "nfc",
              "type": "uint256"
            },
            {
              "internalType": "uint256",
              "name": "index",
              "type": "uint256"
            }
          ],
          "internalType": "struct Registration.station[]",
          "name": "",
          "type": "tuple[]"
        }
      ],
      "stateMutability": "view",
      "type": "function",
      "constant": true
    },
    {
      "inputs": [
        {
          "internalType": "uint256",
          "name": "_index",
          "type": "uint256"
        }
      ],
      "name": "returnParkingStation",
      "outputs": [
        {
          "components": [
            {
              "internalType": "string",
              "name": "name",
              "type": "string"
            },
            {
              "internalType": "string",
              "name": "street",
              "type": "string"
            },
            {
              "internalType": "uint256",
              "name": "nlp",
              "type": "uint256"
            },
            {
              "internalType": "uint256",
              "name": "nsp",
              "type": "uint256"
            },
            {
              "internalType": "uint256",
              "name": "index",
              "type": "uint256"
            }
          ],
          "internalType": "struct ParkingRegistration.parkingStation",
          "name": "",
          "type": "tuple"
        }
      ],
      "stateMutability": "view",
      "type": "function",
      "constant": true
    },
    {
      "inputs": [
        {
          "internalType": "uint256",
          "name": "_index",
          "type": "uint256"
        }
      ],
      "name": "returnStation",
      "outputs": [
        {
          "components": [
            {
              "internalType": "string",
              "name": "name",
              "type": "string"
            },
            {
              "internalType": "string",
              "name": "street",
              "type": "string"
            },
            {
              "internalType": "uint256",
              "name": "nsc",
              "type": "uint256"
            },
            {
              "internalType": "uint256",
              "name": "nfc",
              "type": "uint256"
            },
            {
              "internalType": "uint256",
              "name": "index",
              "type": "uint256"
            }
          ],
          "internalType": "struct Registration.station",
          "name": "",
          "type": "tuple"
        }
      ],
      "stateMutability": "view",
      "type": "function",
      "constant": true
    },
    {
      "inputs": [
        {
          "internalType": "uint256",
          "name": "",
          "type": "uint256"
        }
      ],
      "name": "stationToOwner",
      "outputs": [
        {
          "internalType": "address",
          "name": "",
          "type": "address"
        }
      ],
      "stateMutability": "view",
      "type": "function",
      "constant": true
    },
    {
      "inputs": [
        {
          "internalType": "uint256",
          "name": "",
          "type": "uint256"
        }
      ],
      "name": "stations",
      "outputs": [
        {
          "internalType": "string",
          "name": "name",
          "type": "string"
        },
        {
          "internalType": "string",
          "name": "street",
          "type": "string"
        },
        {
          "internalType": "uint256",
          "name": "nsc",
          "type": "uint256"
        },
        {
          "internalType": "uint256",
          "name": "nfc",
          "type": "uint256"
        },
        {
          "internalType": "uint256",
          "name": "index",
          "type": "uint256"
        }
      ],
      "stateMutability": "view",
      "type": "function",
      "constant": true
    },
    {
      "inputs": [
        {
          "internalType": "address",
          "name": "station",
          "type": "address"
        }
      ],
      "name": "transfer",
      "outputs": [],
      "stateMutability": "payable",
      "type": "function",
      "payable": true
    }
  ],
  "bytecode": "0x60806040523480156200001157600080fd5b5060405162001a7638038062001a768339818101604052810190620000379190620000de565b33600460006101000a81548173ffffffffffffffffffffffffffffffffffffffff021916908373ffffffffffffffffffffffffffffffffffffffff160217905550836005819055508260068190555081600781905550806008819055505050505062000150565b600080fd5b6000819050919050565b620000b881620000a3565b8114620000c457600080fd5b50565b600081519050620000d881620000ad565b92915050565b60008060008060808587031215620000fb57620000fa6200009e565b5b60006200010b87828801620000c7565b94505060206200011e87828801620000c7565b93505060406200013187828801620000c7565b92505060606200014487828801620000c7565b91505092959194509250565b61191680620001606000396000f3fe6080604052600436106100a75760003560e01c8063481c6a7511610064578063481c6a75146101c5578063547266ef146101f05780636d538aec1461022d5780636fd90b021461026a57806392f859db146102a7578063e73f8afd146102e8576100a7565b80630fd75c29146100ac578063112b72c7146100d5578063140cf4a1146101005780631a695230146101415780633f1c1a0b1461015d578063413aae0114610188575b600080fd5b3480156100b857600080fd5b506100d360048036038101906100ce919061117f565b610311565b005b3480156100e157600080fd5b506100ea610420565b6040516100f791906113f4565b60405180910390f35b34801561010c57600080fd5b5061012760048036038101906101229190611416565b6105c1565b60405161013895949392919061149c565b60405180910390f35b61015b6004803603810190610156919061155b565b610717565b005b34801561016957600080fd5b50610172610761565b60405161017f91906116c7565b60405180910390f35b34801561019457600080fd5b506101af60048036038101906101aa9190611416565b610902565b6040516101bc91906116f8565b60405180910390f35b3480156101d157600080fd5b506101da610935565b6040516101e791906116f8565b60405180910390f35b3480156101fc57600080fd5b5061021760048036038101906102129190611416565b61095b565b60405161022491906116f8565b60405180910390f35b34801561023957600080fd5b50610254600480360381019061024f9190611416565b61098e565b6040516102619190611790565b60405180910390f35b34801561027657600080fd5b50610291600480360381019061028c9190611416565b610b0c565b60405161029e919061182f565b60405180910390f35b3480156102b357600080fd5b506102ce60048036038101906102c99190611416565b610c8a565b6040516102df95949392919061149c565b60405180910390f35b3480156102f457600080fd5b5061030f600480360381019061030a919061117f565b610de0565b005b6000600280549050905060026040518060a001604052808781526020018681526020018581526020018481526020018381525090806001815401808255809150506001900390600052602060002090600502016000909190919091506000820151816000019080519060200190610389929190610eee565b5060208201518160010190805190602001906103a6929190610eee565b506040820151816002015560608201518160030155608082015181600401555050336003600083815260200190815260200160002060006101000a81548173ffffffffffffffffffffffffffffffffffffffff021916908373ffffffffffffffffffffffffffffffffffffffff1602179055505050505050565b60606000805480602002602001604051908101604052809291908181526020016000905b828210156105b857838290600052602060002090600502016040518060a001604052908160008201805461047790611880565b80601f01602080910402602001604051908101604052809291908181526020018280546104a390611880565b80156104f05780601f106104c5576101008083540402835291602001916104f0565b820191906000526020600020905b8154815290600101906020018083116104d357829003601f168201915b5050505050815260200160018201805461050990611880565b80601f016020809104026020016040519081016040528092919081815260200182805461053590611880565b80156105825780601f1061055757610100808354040283529160200191610582565b820191906000526020600020905b81548152906001019060200180831161056557829003601f168201915b50505050508152602001600282015481526020016003820154815260200160048201548152505081526020019060010190610444565b50505050905090565b600281815481106105d157600080fd5b90600052602060002090600502016000915090508060000180546105f490611880565b80601f016020809104026020016040519081016040528092919081815260200182805461062090611880565b801561066d5780601f106106425761010080835404028352916020019161066d565b820191906000526020600020905b81548152906001019060200180831161065057829003601f168201915b50505050509080600101805461068290611880565b80601f01602080910402602001604051908101604052809291908181526020018280546106ae90611880565b80156106fb5780601f106106d0576101008083540402835291602001916106fb565b820191906000526020600020905b8154815290600101906020018083116106de57829003601f168201915b5050505050908060020154908060030154908060040154905085565b8073ffffffffffffffffffffffffffffffffffffffff166108fc349081150290604051600060405180830381858888f1935050505015801561075d573d6000803e3d6000fd5b5050565b60606002805480602002602001604051908101604052809291908181526020016000905b828210156108f957838290600052602060002090600502016040518060a00160405290816000820180546107b890611880565b80601f01602080910402602001604051908101604052809291908181526020018280546107e490611880565b80156108315780601f1061080657610100808354040283529160200191610831565b820191906000526020600020905b81548152906001019060200180831161081457829003601f168201915b5050505050815260200160018201805461084a90611880565b80601f016020809104026020016040519081016040528092919081815260200182805461087690611880565b80156108c35780601f10610898576101008083540402835291602001916108c3565b820191906000526020600020905b8154815290600101906020018083116108a657829003601f168201915b50505050508152602001600282015481526020016003820154815260200160048201548152505081526020019060010190610785565b50505050905090565b60036020528060005260406000206000915054906101000a900473ffffffffffffffffffffffffffffffffffffffff1681565b600460009054906101000a900473ffffffffffffffffffffffffffffffffffffffff1681565b60016020528060005260406000206000915054906101000a900473ffffffffffffffffffffffffffffffffffffffff1681565b610996610f74565b600082815481106109aa576109a96118b1565b5b90600052602060002090600502016040518060a00160405290816000820180546109d390611880565b80601f01602080910402602001604051908101604052809291908181526020018280546109ff90611880565b8015610a4c5780601f10610a2157610100808354040283529160200191610a4c565b820191906000526020600020905b815481529060010190602001808311610a2f57829003601f168201915b50505050508152602001600182018054610a6590611880565b80601f0160208091040260200160405190810160405280929190818152602001828054610a9190611880565b8015610ade5780601f10610ab357610100808354040283529160200191610ade565b820191906000526020600020905b815481529060010190602001808311610ac157829003601f168201915b5050505050815260200160028201548152602001600382015481526020016004820154815250509050919050565b610b14610fa3565b60028281548110610b2857610b276118b1565b5b90600052602060002090600502016040518060a0016040529081600082018054610b5190611880565b80601f0160208091040260200160405190810160405280929190818152602001828054610b7d90611880565b8015610bca5780601f10610b9f57610100808354040283529160200191610bca565b820191906000526020600020905b815481529060010190602001808311610bad57829003601f168201915b50505050508152602001600182018054610be390611880565b80601f0160208091040260200160405190810160405280929190818152602001828054610c0f90611880565b8015610c5c5780601f10610c3157610100808354040283529160200191610c5c565b820191906000526020600020905b815481529060010190602001808311610c3f57829003601f168201915b5050505050815260200160028201548152602001600382015481526020016004820154815250509050919050565b60008181548110610c9a57600080fd5b9060005260206000209060050201600091509050806000018054610cbd90611880565b80601f0160208091040260200160405190810160405280929190818152602001828054610ce990611880565b8015610d365780601f10610d0b57610100808354040283529160200191610d36565b820191906000526020600020905b815481529060010190602001808311610d1957829003601f168201915b505050505090806001018054610d4b90611880565b80601f0160208091040260200160405190810160405280929190818152602001828054610d7790611880565b8015610dc45780601f10610d9957610100808354040283529160200191610dc4565b820191906000526020600020905b815481529060010190602001808311610da757829003601f168201915b5050505050908060020154908060030154908060040154905085565b60008080549050905060006040518060a001604052808781526020018681526020018581526020018481526020018381525090806001815401808255809150506001900390600052602060002090600502016000909190919091506000820151816000019080519060200190610e57929190610eee565b506020820151816001019080519060200190610e74929190610eee565b506040820151816002015560608201518160030155608082015181600401555050336001600083815260200190815260200160002060006101000a81548173ffffffffffffffffffffffffffffffffffffffff021916908373ffffffffffffffffffffffffffffffffffffffff1602179055505050505050565b828054610efa90611880565b90600052602060002090601f016020900481019282610f1c5760008555610f63565b82601f10610f3557805160ff1916838001178555610f63565b82800160010185558215610f63579182015b82811115610f62578251825591602001919060010190610f47565b5b509050610f709190610fd2565b5090565b6040518060a0016040528060608152602001606081526020016000815260200160008152602001600081525090565b6040518060a0016040528060608152602001606081526020016000815260200160008152602001600081525090565b5b80821115610feb576000816000905550600101610fd3565b5090565b6000604051905090565b600080fd5b600080fd5b600080fd5b600080fd5b6000601f19601f8301169050919050565b7f4e487b7100000000000000000000000000000000000000000000000000000000600052604160045260246000fd5b6110568261100d565b810181811067ffffffffffffffff821117156110755761107461101e565b5b80604052505050565b6000611088610fef565b9050611094828261104d565b919050565b600067ffffffffffffffff8211156110b4576110b361101e565b5b6110bd8261100d565b9050602081019050919050565b82818337600083830152505050565b60006110ec6110e784611099565b61107e565b90508281526020810184848401111561110857611107611008565b5b6111138482856110ca565b509392505050565b600082601f8301126111305761112f611003565b5b81356111408482602086016110d9565b91505092915050565b6000819050919050565b61115c81611149565b811461116757600080fd5b50565b60008135905061117981611153565b92915050565b6000806000806080858703121561119957611198610ff9565b5b600085013567ffffffffffffffff8111156111b7576111b6610ffe565b5b6111c38782880161111b565b945050602085013567ffffffffffffffff8111156111e4576111e3610ffe565b5b6111f08782880161111b565b93505060406112018782880161116a565b92505060606112128782880161116a565b91505092959194509250565b600081519050919050565b600082825260208201905092915050565b6000819050602082019050919050565b600081519050919050565b600082825260208201905092915050565b60005b83811015611284578082015181840152602081019050611269565b83811115611293576000848401525b50505050565b60006112a48261124a565b6112ae8185611255565b93506112be818560208601611266565b6112c78161100d565b840191505092915050565b6112db81611149565b82525050565b600060a08301600083015184820360008601526112fe8282611299565b915050602083015184820360208601526113188282611299565b915050604083015161132d60408601826112d2565b50606083015161134060608601826112d2565b50608083015161135360808601826112d2565b508091505092915050565b600061136a83836112e1565b905092915050565b6000602082019050919050565b600061138a8261121e565b6113948185611229565b9350836020820285016113a68561123a565b8060005b858110156113e257848403895281516113c3858261135e565b94506113ce83611372565b925060208a019950506001810190506113aa565b50829750879550505050505092915050565b6000602082019050818103600083015261140e818461137f565b905092915050565b60006020828403121561142c5761142b610ff9565b5b600061143a8482850161116a565b91505092915050565b600082825260208201905092915050565b600061145f8261124a565b6114698185611443565b9350611479818560208601611266565b6114828161100d565b840191505092915050565b61149681611149565b82525050565b600060a08201905081810360008301526114b68188611454565b905081810360208301526114ca8187611454565b90506114d9604083018661148d565b6114e6606083018561148d565b6114f3608083018461148d565b9695505050505050565b600073ffffffffffffffffffffffffffffffffffffffff82169050919050565b6000611528826114fd565b9050919050565b6115388161151d565b811461154357600080fd5b50565b6000813590506115558161152f565b92915050565b60006020828403121561157157611570610ff9565b5b600061157f84828501611546565b91505092915050565b600081519050919050565b600082825260208201905092915050565b6000819050602082019050919050565b600060a08301600083015184820360008601526115d18282611299565b915050602083015184820360208601526115eb8282611299565b915050604083015161160060408601826112d2565b50606083015161161360608601826112d2565b50608083015161162660808601826112d2565b508091505092915050565b600061163d83836115b4565b905092915050565b6000602082019050919050565b600061165d82611588565b6116678185611593565b935083602082028501611679856115a4565b8060005b858110156116b557848403895281516116968582611631565b94506116a183611645565b925060208a0199505060018101905061167d565b50829750879550505050505092915050565b600060208201905081810360008301526116e18184611652565b905092915050565b6116f28161151d565b82525050565b600060208201905061170d60008301846116e9565b92915050565b600060a08301600083015184820360008601526117308282611299565b9150506020830151848203602086015261174a8282611299565b915050604083015161175f60408601826112d2565b50606083015161177260608601826112d2565b50608083015161178560808601826112d2565b508091505092915050565b600060208201905081810360008301526117aa8184611713565b905092915050565b600060a08301600083015184820360008601526117cf8282611299565b915050602083015184820360208601526117e98282611299565b91505060408301516117fe60408601826112d2565b50606083015161181160608601826112d2565b50608083015161182460808601826112d2565b508091505092915050565b6000602082019050818103600083015261184981846117b2565b905092915050565b7f4e487b7100000000000000000000000000000000000000000000000000000000600052602260045260246000fd5b6000600282049050600182168061189857607f821691505b6020821081036118ab576118aa611851565b5b50919050565b7f4e487b7100000000000000000000000000000000000000000000000000000000600052603260045260246000fdfea2646970667358221220999018e380186baf44ac3b0c50af1b9c9dbe205fd10b95623cb234643e8a7c3d64736f6c634300080e0033",
  "immutableReferences": {},
  "source": "// SPDX-License-Identifier: MIT\r\npragma solidity >=0.4.22 <0.9.0;\r\n\r\nimport \"./Registration.sol\";\r\nimport \"./ParkingRegistration.sol\";\r\n\r\ncontract Index is Registration, ParkingRegistration{\r\n\r\n    address public manager;\r\n    uint256 scr;\r\n    uint256 fcr;\r\n    uint256 lpr;\r\n    uint256 spr;\r\n\r\n    constructor(uint256 _scr, uint256 _fcr, uint256 _lpr, uint256 _spr){\r\n        manager = msg.sender;\r\n        scr = _scr;\r\n        fcr = _fcr;\r\n        lpr = _lpr;\r\n        spr = _spr;\r\n    }   \r\n\r\n    function transfer(address station) public payable{\r\n            payable(station).transfer(msg.value);\r\n        \r\n    }\r\n\r\n}",
  "sourcePath": "C:\\Users\\Manan Kinger\\Desktop\\BTP\\contract\\contracts\\Index.sol",
  "compiler": {
    "name": "solc",
    "version": "0.8.14+commit.80d49f37.Emscripten.clang"
  },
  "schemaVersion": "3.4.7",
  "updatedAt": "2022-08-22T18:25:00.598Z",
  "networkType": "ethereum",
  "devdoc": {
    "kind": "dev",
    "methods": {},
    "version": 1
  },
  "userdoc": {
    "kind": "user",
    "methods": {},
    "version": 1
  }
}