{
  "contractName": "ParkingRegistration",
  "abi": [
    {
      "inputs": [
        {
          "internalType": "uint256",
          "name": "",
          "type": "uint256"
        }
      ],
      "name": "parkingStationToOwner",
      "outputs": [
        {
          "internalType": "address",
          "name": "",
          "type": "address"
        }
      ],
      "stateMutability": "view",
      "type": "function"
    },
    {
      "inputs": [
        {
          "internalType": "uint256",
          "name": "",
          "type": "uint256"
        }
      ],
      "name": "parkingStations",
      "outputs": [
        {
          "internalType": "string",
          "name": "name",
          "type": "string"
        },
        {
          "internalType": "string",
          "name": "street",
          "type": "string"
        },
        {
          "internalType": "uint256",
          "name": "nlp",
          "type": "uint256"
        },
        {
          "internalType": "uint256",
          "name": "nsp",
          "type": "uint256"
        },
        {
          "internalType": "uint256",
          "name": "index",
          "type": "uint256"
        }
      ],
      "stateMutability": "view",
      "type": "function"
    },
    {
      "inputs": [
        {
          "internalType": "string",
          "name": "_name",
          "type": "string"
        },
        {
          "internalType": "string",
          "name": "_street",
          "type": "string"
        },
        {
          "internalType": "uint256",
          "name": "_nlp",
          "type": "uint256"
        },
        {
          "internalType": "uint256",
          "name": "_nsp",
          "type": "uint256"
        }
      ],
      "name": "registerParkingItem",
      "outputs": [],
      "stateMutability": "nonpayable",
      "type": "function"
    },
    {
      "inputs": [],
      "name": "registeredParkingStation",
      "outputs": [
        {
          "components": [
            {
              "internalType": "string",
              "name": "name",
              "type": "string"
            },
            {
              "internalType": "string",
              "name": "street",
              "type": "string"
            },
            {
              "internalType": "uint256",
              "name": "nlp",
              "type": "uint256"
            },
            {
              "internalType": "uint256",
              "name": "nsp",
              "type": "uint256"
            },
            {
              "internalType": "uint256",
              "name": "index",
              "type": "uint256"
            }
          ],
          "internalType": "struct ParkingRegistration.parkingStation[]",
          "name": "",
          "type": "tuple[]"
        }
      ],
      "stateMutability": "view",
      "type": "function"
    },
    {
      "inputs": [
        {
          "internalType": "uint256",
          "name": "_index",
          "type": "uint256"
        }
      ],
      "name": "returnParkingStation",
      "outputs": [
        {
          "components": [
            {
              "internalType": "string",
              "name": "name",
              "type": "string"
            },
            {
              "internalType": "string",
              "name": "street",
              "type": "string"
            },
            {
              "internalType": "uint256",
              "name": "nlp",
              "type": "uint256"
            },
            {
              "internalType": "uint256",
              "name": "nsp",
              "type": "uint256"
            },
            {
              "internalType": "uint256",
              "name": "index",
              "type": "uint256"
            }
          ],
          "internalType": "struct ParkingRegistration.parkingStation",
          "name": "",
          "type": "tuple"
        }
      ],
      "stateMutability": "view",
      "type": "function"
    }
  ],
  "bytecode": "0x608060405234801561001057600080fd5b50610e80806100206000396000f3fe608060405234801561001057600080fd5b50600436106100575760003560e01c80630fd75c291461005c578063140cf4a1146100785780633f1c1a0b146100ac578063413aae01146100ca5780636fd90b02146100fa575b600080fd5b61007660048036038101906100719190610942565b61012a565b005b610092600480360381019061008d91906109e1565b610238565b6040516100a3959493929190610aa5565b60405180910390f35b6100b461038e565b6040516100c19190610c9e565b60405180910390f35b6100e460048036038101906100df91906109e1565b61052f565b6040516100f19190610d01565b60405180910390f35b610114600480360381019061010f91906109e1565b610562565b6040516101219190610d99565b60405180910390f35b60008080549050905060006040518060a0016040528087815260200186815260200185815260200184815260200183815250908060018154018082558091505060019003906000526020600020906005020160009091909190915060008201518160000190805190602001906101a19291906106e0565b5060208201518160010190805190602001906101be9291906106e0565b506040820151816002015560608201518160030155608082015181600401555050336001600083815260200190815260200160002060006101000a81548173ffffffffffffffffffffffffffffffffffffffff021916908373ffffffffffffffffffffffffffffffffffffffff1602179055505050505050565b6000818154811061024857600080fd5b906000526020600020906005020160009150905080600001805461026b90610dea565b80601f016020809104026020016040519081016040528092919081815260200182805461029790610dea565b80156102e45780601f106102b9576101008083540402835291602001916102e4565b820191906000526020600020905b8154815290600101906020018083116102c757829003601f168201915b5050505050908060010180546102f990610dea565b80601f016020809104026020016040519081016040528092919081815260200182805461032590610dea565b80156103725780601f1061034757610100808354040283529160200191610372565b820191906000526020600020905b81548152906001019060200180831161035557829003601f168201915b5050505050908060020154908060030154908060040154905085565b60606000805480602002602001604051908101604052809291908181526020016000905b8282101561052657838290600052602060002090600502016040518060a00160405290816000820180546103e590610dea565b80601f016020809104026020016040519081016040528092919081815260200182805461041190610dea565b801561045e5780601f106104335761010080835404028352916020019161045e565b820191906000526020600020905b81548152906001019060200180831161044157829003601f168201915b5050505050815260200160018201805461047790610dea565b80601f01602080910402602001604051908101604052809291908181526020018280546104a390610dea565b80156104f05780601f106104c5576101008083540402835291602001916104f0565b820191906000526020600020905b8154815290600101906020018083116104d357829003601f168201915b505050505081526020016002820154815260200160038201548152602001600482015481525050815260200190600101906103b2565b50505050905090565b60016020528060005260406000206000915054906101000a900473ffffffffffffffffffffffffffffffffffffffff1681565b61056a610766565b6000828154811061057e5761057d610e1b565b5b90600052602060002090600502016040518060a00160405290816000820180546105a790610dea565b80601f01602080910402602001604051908101604052809291908181526020018280546105d390610dea565b80156106205780601f106105f557610100808354040283529160200191610620565b820191906000526020600020905b81548152906001019060200180831161060357829003601f168201915b5050505050815260200160018201805461063990610dea565b80601f016020809104026020016040519081016040528092919081815260200182805461066590610dea565b80156106b25780601f10610687576101008083540402835291602001916106b2565b820191906000526020600020905b81548152906001019060200180831161069557829003601f168201915b5050505050815260200160028201548152602001600382015481526020016004820154815250509050919050565b8280546106ec90610dea565b90600052602060002090601f01602090048101928261070e5760008555610755565b82601f1061072757805160ff1916838001178555610755565b82800160010185558215610755579182015b82811115610754578251825591602001919060010190610739565b5b5090506107629190610795565b5090565b6040518060a0016040528060608152602001606081526020016000815260200160008152602001600081525090565b5b808211156107ae576000816000905550600101610796565b5090565b6000604051905090565b600080fd5b600080fd5b600080fd5b600080fd5b6000601f19601f8301169050919050565b7f4e487b7100000000000000000000000000000000000000000000000000000000600052604160045260246000fd5b610819826107d0565b810181811067ffffffffffffffff82111715610838576108376107e1565b5b80604052505050565b600061084b6107b2565b90506108578282610810565b919050565b600067ffffffffffffffff821115610877576108766107e1565b5b610880826107d0565b9050602081019050919050565b82818337600083830152505050565b60006108af6108aa8461085c565b610841565b9050828152602081018484840111156108cb576108ca6107cb565b5b6108d684828561088d565b509392505050565b600082601f8301126108f3576108f26107c6565b5b813561090384826020860161089c565b91505092915050565b6000819050919050565b61091f8161090c565b811461092a57600080fd5b50565b60008135905061093c81610916565b92915050565b6000806000806080858703121561095c5761095b6107bc565b5b600085013567ffffffffffffffff81111561097a576109796107c1565b5b610986878288016108de565b945050602085013567ffffffffffffffff8111156109a7576109a66107c1565b5b6109b3878288016108de565b93505060406109c48782880161092d565b92505060606109d58782880161092d565b91505092959194509250565b6000602082840312156109f7576109f66107bc565b5b6000610a058482850161092d565b91505092915050565b600081519050919050565b600082825260208201905092915050565b60005b83811015610a48578082015181840152602081019050610a2d565b83811115610a57576000848401525b50505050565b6000610a6882610a0e565b610a728185610a19565b9350610a82818560208601610a2a565b610a8b816107d0565b840191505092915050565b610a9f8161090c565b82525050565b600060a0820190508181036000830152610abf8188610a5d565b90508181036020830152610ad38187610a5d565b9050610ae26040830186610a96565b610aef6060830185610a96565b610afc6080830184610a96565b9695505050505050565b600081519050919050565b600082825260208201905092915050565b6000819050602082019050919050565b600082825260208201905092915050565b6000610b4e82610a0e565b610b588185610b32565b9350610b68818560208601610a2a565b610b71816107d0565b840191505092915050565b610b858161090c565b82525050565b600060a0830160008301518482036000860152610ba88282610b43565b91505060208301518482036020860152610bc28282610b43565b9150506040830151610bd76040860182610b7c565b506060830151610bea6060860182610b7c565b506080830151610bfd6080860182610b7c565b508091505092915050565b6000610c148383610b8b565b905092915050565b6000602082019050919050565b6000610c3482610b06565b610c3e8185610b11565b935083602082028501610c5085610b22565b8060005b85811015610c8c5784840389528151610c6d8582610c08565b9450610c7883610c1c565b925060208a01995050600181019050610c54565b50829750879550505050505092915050565b60006020820190508181036000830152610cb88184610c29565b905092915050565b600073ffffffffffffffffffffffffffffffffffffffff82169050919050565b6000610ceb82610cc0565b9050919050565b610cfb81610ce0565b82525050565b6000602082019050610d166000830184610cf2565b92915050565b600060a0830160008301518482036000860152610d398282610b43565b91505060208301518482036020860152610d538282610b43565b9150506040830151610d686040860182610b7c565b506060830151610d7b6060860182610b7c565b506080830151610d8e6080860182610b7c565b508091505092915050565b60006020820190508181036000830152610db38184610d1c565b905092915050565b7f4e487b7100000000000000000000000000000000000000000000000000000000600052602260045260246000fd5b60006002820490506001821680610e0257607f821691505b602082108103610e1557610e14610dbb565b5b50919050565b7f4e487b7100000000000000000000000000000000000000000000000000000000600052603260045260246000fdfea26469706673582212208bec7e2234c0a44704702e6fc59b8b7d03b6187b2e4391e07843bac3040db46b64736f6c634300080e0033",
  "immutableReferences": {},
  "source": "// SPDX-License-Identifier: MIT\r\npragma solidity >=0.4.22 <0.9.0;\r\n\r\ncontract ParkingRegistration {\r\n\r\n    struct parkingStation{\r\n        string name;\r\n        string street; // address of the parking station\r\n        uint256 nlp; // number of large parking\r\n        uint256 nsp; // number of small parking\r\n        uint index;\r\n\r\n    }\r\n\r\n    parkingStation[] public parkingStations;\r\n    mapping (uint256 => address) public parkingStationToOwner;\r\n\r\n    function registerParkingItem(string memory _name, string memory _street, uint256 _nlp, uint256 _nsp) public{\r\n        uint256 _index = parkingStations.length;\r\n        parkingStations.push(parkingStation(_name, _street, _nlp, _nsp, _index));\r\n        parkingStationToOwner[_index] = msg.sender;\r\n    }\r\n\r\n    function registeredParkingStation() public view returns(parkingStation[] memory){\r\n        return parkingStations;\r\n    }\r\n\r\n    function returnParkingStation(uint _index) public view returns(parkingStation memory){\r\n        return parkingStations[_index];\r\n    }\r\n\r\n}\r\n",
  "sourcePath": "C:\\Users\\Manan Kinger\\Desktop\\BTP\\contract\\contracts\\ParkingRegistration.sol",
  "compiler": {
    "name": "solc",
    "version": "0.8.14+commit.80d49f37.Emscripten.clang"
  },
  "schemaVersion": "3.4.7",
  "updatedAt": "2022-08-22T18:24:58.579Z",
  "devdoc": {
    "kind": "dev",
    "methods": {},
    "version": 1
  },
  "userdoc": {
    "kind": "user",
    "methods": {},
    "version": 1
  }
}