{
  "contractName": "Registration",
  "abi": [
    {
      "inputs": [
        {
          "internalType": "uint256",
          "name": "",
          "type": "uint256"
        }
      ],
      "name": "stationToOwner",
      "outputs": [
        {
          "internalType": "address",
          "name": "",
          "type": "address"
        }
      ],
      "stateMutability": "view",
      "type": "function"
    },
    {
      "inputs": [
        {
          "internalType": "uint256",
          "name": "",
          "type": "uint256"
        }
      ],
      "name": "stations",
      "outputs": [
        {
          "internalType": "string",
          "name": "name",
          "type": "string"
        },
        {
          "internalType": "string",
          "name": "street",
          "type": "string"
        },
        {
          "internalType": "uint256",
          "name": "nsc",
          "type": "uint256"
        },
        {
          "internalType": "uint256",
          "name": "nfc",
          "type": "uint256"
        },
        {
          "internalType": "uint256",
          "name": "index",
          "type": "uint256"
        }
      ],
      "stateMutability": "view",
      "type": "function"
    },
    {
      "inputs": [
        {
          "internalType": "string",
          "name": "_name",
          "type": "string"
        },
        {
          "internalType": "string",
          "name": "_street",
          "type": "string"
        },
        {
          "internalType": "uint256",
          "name": "_nsc",
          "type": "uint256"
        },
        {
          "internalType": "uint256",
          "name": "_nfc",
          "type": "uint256"
        }
      ],
      "name": "registerItem",
      "outputs": [],
      "stateMutability": "nonpayable",
      "type": "function"
    },
    {
      "inputs": [],
      "name": "registeredStation",
      "outputs": [
        {
          "components": [
            {
              "internalType": "string",
              "name": "name",
              "type": "string"
            },
            {
              "internalType": "string",
              "name": "street",
              "type": "string"
            },
            {
              "internalType": "uint256",
              "name": "nsc",
              "type": "uint256"
            },
            {
              "internalType": "uint256",
              "name": "nfc",
              "type": "uint256"
            },
            {
              "internalType": "uint256",
              "name": "index",
              "type": "uint256"
            }
          ],
          "internalType": "struct Registration.station[]",
          "name": "",
          "type": "tuple[]"
        }
      ],
      "stateMutability": "view",
      "type": "function"
    },
    {
      "inputs": [
        {
          "internalType": "uint256",
          "name": "_index",
          "type": "uint256"
        }
      ],
      "name": "returnStation",
      "outputs": [
        {
          "components": [
            {
              "internalType": "string",
              "name": "name",
              "type": "string"
            },
            {
              "internalType": "string",
              "name": "street",
              "type": "string"
            },
            {
              "internalType": "uint256",
              "name": "nsc",
              "type": "uint256"
            },
            {
              "internalType": "uint256",
              "name": "nfc",
              "type": "uint256"
            },
            {
              "internalType": "uint256",
              "name": "index",
              "type": "uint256"
            }
          ],
          "internalType": "struct Registration.station",
          "name": "",
          "type": "tuple"
        }
      ],
      "stateMutability": "view",
      "type": "function"
    }
  ],
  "bytecode": "0x608060405234801561001057600080fd5b50610e80806100206000396000f3fe608060405234801561001057600080fd5b50600436106100575760003560e01c8063112b72c71461005c578063547266ef1461007a5780636d538aec146100aa57806392f859db146100da578063e73f8afd1461010e575b600080fd5b61006461012a565b60405161007191906109a3565b60405180910390f35b610094600480360381019061008f9190610a05565b6102cb565b6040516100a19190610a73565b60405180910390f35b6100c460048036038101906100bf9190610a05565b6102fe565b6040516100d19190610b0b565b60405180910390f35b6100f460048036038101906100ef9190610a05565b61047c565b604051610105959493929190610b86565b60405180910390f35b61012860048036038101906101239190610d1c565b6105d2565b005b60606000805480602002602001604051908101604052809291908181526020016000905b828210156102c257838290600052602060002090600502016040518060a001604052908160008201805461018190610dea565b80601f01602080910402602001604051908101604052809291908181526020018280546101ad90610dea565b80156101fa5780601f106101cf576101008083540402835291602001916101fa565b820191906000526020600020905b8154815290600101906020018083116101dd57829003601f168201915b5050505050815260200160018201805461021390610dea565b80601f016020809104026020016040519081016040528092919081815260200182805461023f90610dea565b801561028c5780601f106102615761010080835404028352916020019161028c565b820191906000526020600020905b81548152906001019060200180831161026f57829003601f168201915b5050505050815260200160028201548152602001600382015481526020016004820154815250508152602001906001019061014e565b50505050905090565b60016020528060005260406000206000915054906101000a900473ffffffffffffffffffffffffffffffffffffffff1681565b6103066106e0565b6000828154811061031a57610319610e1b565b5b90600052602060002090600502016040518060a001604052908160008201805461034390610dea565b80601f016020809104026020016040519081016040528092919081815260200182805461036f90610dea565b80156103bc5780601f10610391576101008083540402835291602001916103bc565b820191906000526020600020905b81548152906001019060200180831161039f57829003601f168201915b505050505081526020016001820180546103d590610dea565b80601f016020809104026020016040519081016040528092919081815260200182805461040190610dea565b801561044e5780601f106104235761010080835404028352916020019161044e565b820191906000526020600020905b81548152906001019060200180831161043157829003601f168201915b5050505050815260200160028201548152602001600382015481526020016004820154815250509050919050565b6000818154811061048c57600080fd5b90600052602060002090600502016000915090508060000180546104af90610dea565b80601f01602080910402602001604051908101604052809291908181526020018280546104db90610dea565b80156105285780601f106104fd57610100808354040283529160200191610528565b820191906000526020600020905b81548152906001019060200180831161050b57829003601f168201915b50505050509080600101805461053d90610dea565b80601f016020809104026020016040519081016040528092919081815260200182805461056990610dea565b80156105b65780601f1061058b576101008083540402835291602001916105b6565b820191906000526020600020905b81548152906001019060200180831161059957829003601f168201915b5050505050908060020154908060030154908060040154905085565b60008080549050905060006040518060a00160405280878152602001868152602001858152602001848152602001838152509080600181540180825580915050600190039060005260206000209060050201600090919091909150600082015181600001908051906020019061064992919061070f565b50602082015181600101908051906020019061066692919061070f565b506040820151816002015560608201518160030155608082015181600401555050336001600083815260200190815260200160002060006101000a81548173ffffffffffffffffffffffffffffffffffffffff021916908373ffffffffffffffffffffffffffffffffffffffff1602179055505050505050565b6040518060a0016040528060608152602001606081526020016000815260200160008152602001600081525090565b82805461071b90610dea565b90600052602060002090601f01602090048101928261073d5760008555610784565b82601f1061075657805160ff1916838001178555610784565b82800160010185558215610784579182015b82811115610783578251825591602001919060010190610768565b5b5090506107919190610795565b5090565b5b808211156107ae576000816000905550600101610796565b5090565b600081519050919050565b600082825260208201905092915050565b6000819050602082019050919050565b600081519050919050565b600082825260208201905092915050565b60005b838110156108185780820151818401526020810190506107fd565b83811115610827576000848401525b50505050565b6000601f19601f8301169050919050565b6000610849826107de565b61085381856107e9565b93506108638185602086016107fa565b61086c8161082d565b840191505092915050565b6000819050919050565b61088a81610877565b82525050565b600060a08301600083015184820360008601526108ad828261083e565b915050602083015184820360208601526108c7828261083e565b91505060408301516108dc6040860182610881565b5060608301516108ef6060860182610881565b5060808301516109026080860182610881565b508091505092915050565b60006109198383610890565b905092915050565b6000602082019050919050565b6000610939826107b2565b61094381856107bd565b935083602082028501610955856107ce565b8060005b858110156109915784840389528151610972858261090d565b945061097d83610921565b925060208a01995050600181019050610959565b50829750879550505050505092915050565b600060208201905081810360008301526109bd818461092e565b905092915050565b6000604051905090565b600080fd5b600080fd5b6109e281610877565b81146109ed57600080fd5b50565b6000813590506109ff816109d9565b92915050565b600060208284031215610a1b57610a1a6109cf565b5b6000610a29848285016109f0565b91505092915050565b600073ffffffffffffffffffffffffffffffffffffffff82169050919050565b6000610a5d82610a32565b9050919050565b610a6d81610a52565b82525050565b6000602082019050610a886000830184610a64565b92915050565b600060a0830160008301518482036000860152610aab828261083e565b91505060208301518482036020860152610ac5828261083e565b9150506040830151610ada6040860182610881565b506060830151610aed6060860182610881565b506080830151610b006080860182610881565b508091505092915050565b60006020820190508181036000830152610b258184610a8e565b905092915050565b600082825260208201905092915050565b6000610b49826107de565b610b538185610b2d565b9350610b638185602086016107fa565b610b6c8161082d565b840191505092915050565b610b8081610877565b82525050565b600060a0820190508181036000830152610ba08188610b3e565b90508181036020830152610bb48187610b3e565b9050610bc36040830186610b77565b610bd06060830185610b77565b610bdd6080830184610b77565b9695505050505050565b600080fd5b600080fd5b7f4e487b7100000000000000000000000000000000000000000000000000000000600052604160045260246000fd5b610c298261082d565b810181811067ffffffffffffffff82111715610c4857610c47610bf1565b5b80604052505050565b6000610c5b6109c5565b9050610c678282610c20565b919050565b600067ffffffffffffffff821115610c8757610c86610bf1565b5b610c908261082d565b9050602081019050919050565b82818337600083830152505050565b6000610cbf610cba84610c6c565b610c51565b905082815260208101848484011115610cdb57610cda610bec565b5b610ce6848285610c9d565b509392505050565b600082601f830112610d0357610d02610be7565b5b8135610d13848260208601610cac565b91505092915050565b60008060008060808587031215610d3657610d356109cf565b5b600085013567ffffffffffffffff811115610d5457610d536109d4565b5b610d6087828801610cee565b945050602085013567ffffffffffffffff811115610d8157610d806109d4565b5b610d8d87828801610cee565b9350506040610d9e878288016109f0565b9250506060610daf878288016109f0565b91505092959194509250565b7f4e487b7100000000000000000000000000000000000000000000000000000000600052602260045260246000fd5b60006002820490506001821680610e0257607f821691505b602082108103610e1557610e14610dbb565b5b50919050565b7f4e487b7100000000000000000000000000000000000000000000000000000000600052603260045260246000fdfea2646970667358221220bb49234d18b4d53d8e1eb25881d162c9f13625343741ddcb9dc0a8e526e5d42764736f6c634300080e0033",
  "immutableReferences": {},
  "source": "// SPDX-License-Identifier: MIT\r\npragma solidity >=0.4.22 <0.9.0;\r\n\r\ncontract Registration {\r\n\r\n    struct station{\r\n        string name;\r\n        string street; // address of the charging station\r\n        uint256 nsc; // number of slow charger\r\n        uint256 nfc; // number of fast charger\r\n        uint index;\r\n\r\n    }\r\n\r\n    station[] public stations;\r\n    mapping (uint256 => address) public stationToOwner;\r\n\r\n    function registerItem(string memory _name, string memory _street, uint256 _nsc, uint256 _nfc) public{\r\n        uint256 _index = stations.length;\r\n        stations.push(station(_name, _street, _nsc, _nfc, _index));\r\n        stationToOwner[_index] = msg.sender;\r\n    }\r\n\r\n    function registeredStation() public view returns(station[] memory){\r\n        return stations;\r\n    }\r\n\r\n    function returnStation(uint _index) public view returns(station memory){\r\n        return stations[_index];\r\n    }\r\n\r\n}\r\n",
  "sourcePath": "C:\\Users\\Manan Kinger\\Desktop\\BTP\\contract\\contracts\\Registration.sol",
  "compiler": {
    "name": "solc",
    "version": "0.8.14+commit.80d49f37.Emscripten.clang"
  },
  "schemaVersion": "3.4.7",
  "updatedAt": "2022-08-22T18:24:58.587Z",
  "devdoc": {
    "kind": "dev",
    "methods": {},
    "version": 1
  },
  "userdoc": {
    "kind": "user",
    "methods": {},
    "version": 1
  }
}