{
  "contractName": "User",
  "abi": [
    {
      "inputs": [
        {
          "internalType": "uint256",
          "name": "",
          "type": "uint256"
        }
      ],
      "name": "indexToUser",
      "outputs": [
        {
          "internalType": "address",
          "name": "",
          "type": "address"
        }
      ],
      "stateMutability": "view",
      "type": "function"
    },
    {
      "inputs": [
        {
          "internalType": "uint256",
          "name": "",
          "type": "uint256"
        }
      ],
      "name": "users",
      "outputs": [
        {
          "internalType": "address",
          "name": "add",
          "type": "address"
        },
        {
          "internalType": "uint256",
          "name": "index",
          "type": "uint256"
        }
      ],
      "stateMutability": "view",
      "type": "function"
    },
    {
      "inputs": [],
      "name": "userRegister",
      "outputs": [],
      "stateMutability": "nonpayable",
      "type": "function"
    },
    {
      "inputs": [],
      "name": "usersList",
      "outputs": [
        {
          "components": [
            {
              "internalType": "address",
              "name": "add",
              "type": "address"
            },
            {
              "internalType": "uint256",
              "name": "index",
              "type": "uint256"
            }
          ],
          "internalType": "struct User.user[]",
          "name": "",
          "type": "tuple[]"
        }
      ],
      "stateMutability": "view",
      "type": "function"
    }
  ],
  "bytecode": "0x608060405234801561001057600080fd5b50610577806100206000396000f3fe608060405234801561001057600080fd5b506004361061004c5760003560e01c8063365b98b2146100515780636c6f360e1461008257806377b6af521461008c578063a9454a7d146100aa575b600080fd5b61006b60048036038101906100669190610362565b6100da565b6040516100799291906103df565b60405180910390f35b61008a61012e565b005b610094610235565b6040516100a19190610504565b60405180910390f35b6100c460048036038101906100bf9190610362565b6102f4565b6040516100d19190610526565b60405180910390f35b600081815481106100ea57600080fd5b90600052602060002090600202016000915090508060000160009054906101000a900473ffffffffffffffffffffffffffffffffffffffff16908060010154905082565b600080805490509050600060405180604001604052803373ffffffffffffffffffffffffffffffffffffffff16815260200183815250908060018154018082558091505060019003906000526020600020906002020160009091909190915060008201518160000160006101000a81548173ffffffffffffffffffffffffffffffffffffffff021916908373ffffffffffffffffffffffffffffffffffffffff160217905550602082015181600101555050336001600083815260200190815260200160002060006101000a81548173ffffffffffffffffffffffffffffffffffffffff021916908373ffffffffffffffffffffffffffffffffffffffff16021790555050565b60606000805480602002602001604051908101604052809291908181526020016000905b828210156102eb57838290600052602060002090600202016040518060400160405290816000820160009054906101000a900473ffffffffffffffffffffffffffffffffffffffff1673ffffffffffffffffffffffffffffffffffffffff1673ffffffffffffffffffffffffffffffffffffffff16815260200160018201548152505081526020019060010190610259565b50505050905090565b60016020528060005260406000206000915054906101000a900473ffffffffffffffffffffffffffffffffffffffff1681565b600080fd5b6000819050919050565b61033f8161032c565b811461034a57600080fd5b50565b60008135905061035c81610336565b92915050565b60006020828403121561037857610377610327565b5b60006103868482850161034d565b91505092915050565b600073ffffffffffffffffffffffffffffffffffffffff82169050919050565b60006103ba8261038f565b9050919050565b6103ca816103af565b82525050565b6103d98161032c565b82525050565b60006040820190506103f460008301856103c1565b61040160208301846103d0565b9392505050565b600081519050919050565b600082825260208201905092915050565b6000819050602082019050919050565b61043d816103af565b82525050565b61044c8161032c565b82525050565b6040820160008201516104686000850182610434565b50602082015161047b6020850182610443565b50505050565b600061048d8383610452565b60408301905092915050565b6000602082019050919050565b60006104b182610408565b6104bb8185610413565b93506104c683610424565b8060005b838110156104f75781516104de8882610481565b97506104e983610499565b9250506001810190506104ca565b5085935050505092915050565b6000602082019050818103600083015261051e81846104a6565b905092915050565b600060208201905061053b60008301846103c1565b9291505056fea264697066735822122060e3175555cd0f563defe36f31307d3a08d615e40c328878531e383ced590b0664736f6c634300080e0033",
  "immutableReferences": {},
  "source": "// SPDX-License-Identifier: MIT\r\npragma solidity >=0.4.22 <0.9.0;\r\n\r\ncontract User{\r\n        struct user{\r\n            address add;\r\n            uint256 index;\r\n        }\r\n\r\n        user[] public users;\r\n        mapping (uint256 => address) public indexToUser;\r\n\r\n        function userRegister() public{\r\n            uint _index = users.length;\r\n            users.push(user(msg.sender, _index));\r\n            indexToUser[_index] = msg.sender;\r\n        }\r\n\r\n        function usersList() public view returns(user[] memory){\r\n            return users;\r\n        }\r\n\r\n\r\n\r\n}",
  "sourcePath": "C:\\Users\\Manan Kinger\\Desktop\\BTP\\contract\\contracts\\User.sol",
  "compiler": {
    "name": "solc",
    "version": "0.8.14+commit.80d49f37.Emscripten.clang"
  },
  "schemaVersion": "3.4.7",
  "updatedAt": "2022-08-22T18:24:58.595Z",
  "devdoc": {
    "kind": "dev",
    "methods": {},
    "version": 1
  },
  "userdoc": {
    "kind": "user",
    "methods": {},
    "version": 1
  }
}